{
  "_format": "hh-sol-artifact-1",
  "contractName": "Elimu",
  "sourceName": "contracts/Elimu.sol",
  "abi": [
    {
      "inputs": [],
      "stateMutability": "nonpayable",
      "type": "constructor"
    },
    {
      "anonymous": false,
      "inputs": [
        {
          "indexed": true,
          "internalType": "address",
          "name": "owner",
          "type": "address"
        },
        {
          "indexed": true,
          "internalType": "address",
          "name": "approved",
          "type": "address"
        },
        {
          "indexed": true,
          "internalType": "uint256",
          "name": "tokenId",
          "type": "uint256"
        }
      ],
      "name": "Approval",
      "type": "event"
    },
    {
      "anonymous": false,
      "inputs": [
        {
          "indexed": true,
          "internalType": "address",
          "name": "owner",
          "type": "address"
        },
        {
          "indexed": true,
          "internalType": "address",
          "name": "operator",
          "type": "address"
        },
        {
          "indexed": false,
          "internalType": "bool",
          "name": "approved",
          "type": "bool"
        }
      ],
      "name": "ApprovalForAll",
      "type": "event"
    },
    {
      "anonymous": false,
      "inputs": [
        {
          "indexed": false,
          "internalType": "uint256",
          "name": "_fromTokenId",
          "type": "uint256"
        },
        {
          "indexed": false,
          "internalType": "uint256",
          "name": "_toTokenId",
          "type": "uint256"
        }
      ],
      "name": "BatchMetadataUpdate",
      "type": "event"
    },
    {
      "anonymous": false,
      "inputs": [
        {
          "indexed": false,
          "internalType": "uint256",
          "name": "tokenId",
          "type": "uint256"
        },
        {
          "indexed": false,
          "internalType": "address",
          "name": "owner",
          "type": "address"
        },
        {
          "indexed": false,
          "internalType": "string",
          "name": "courseId",
          "type": "string"
        },
        {
          "indexed": false,
          "internalType": "string",
          "name": "details",
          "type": "string"
        },
        {
          "indexed": false,
          "internalType": "string",
          "name": "tokenUri",
          "type": "string"
        }
      ],
      "name": "CertificateMinted",
      "type": "event"
    },
    {
      "anonymous": false,
      "inputs": [
        {
          "indexed": true,
          "internalType": "uint256",
          "name": "id",
          "type": "uint256"
        },
        {
          "indexed": true,
          "internalType": "address",
          "name": "creator",
          "type": "address"
        },
        {
          "indexed": false,
          "internalType": "string",
          "name": "projectData",
          "type": "string"
        }
      ],
      "name": "CourseCreated",
      "type": "event"
    },
    {
      "anonymous": false,
      "inputs": [
        {
          "indexed": false,
          "internalType": "uint256",
          "name": "_tokenId",
          "type": "uint256"
        }
      ],
      "name": "MetadataUpdate",
      "type": "event"
    },
    {
      "anonymous": false,
      "inputs": [
        {
          "indexed": true,
          "internalType": "address",
          "name": "previousOwner",
          "type": "address"
        },
        {
          "indexed": true,
          "internalType": "address",
          "name": "newOwner",
          "type": "address"
        }
      ],
      "name": "OwnershipTransferred",
      "type": "event"
    },
    {
      "anonymous": false,
      "inputs": [
        {
          "indexed": true,
          "internalType": "address",
          "name": "from",
          "type": "address"
        },
        {
          "indexed": true,
          "internalType": "address",
          "name": "to",
          "type": "address"
        },
        {
          "indexed": true,
          "internalType": "uint256",
          "name": "tokenId",
          "type": "uint256"
        }
      ],
      "name": "Transfer",
      "type": "event"
    },
    {
      "inputs": [
        {
          "internalType": "address",
          "name": "to",
          "type": "address"
        },
        {
          "internalType": "uint256",
          "name": "tokenId",
          "type": "uint256"
        }
      ],
      "name": "approve",
      "outputs": [],
      "stateMutability": "nonpayable",
      "type": "function"
    },
    {
      "inputs": [
        {
          "internalType": "address",
          "name": "owner",
          "type": "address"
        }
      ],
      "name": "balanceOf",
      "outputs": [
        {
          "internalType": "uint256",
          "name": "",
          "type": "uint256"
        }
      ],
      "stateMutability": "view",
      "type": "function"
    },
    {
      "inputs": [
        {
          "internalType": "uint256",
          "name": "",
          "type": "uint256"
        }
      ],
      "name": "certificates",
      "outputs": [
        {
          "internalType": "string",
          "name": "courseId",
          "type": "string"
        },
        {
          "internalType": "string",
          "name": "details",
          "type": "string"
        }
      ],
      "stateMutability": "view",
      "type": "function"
    },
    {
      "inputs": [
        {
          "internalType": "uint256",
          "name": "",
          "type": "uint256"
        }
      ],
      "name": "courses",
      "outputs": [
        {
          "internalType": "address",
          "name": "creator",
          "type": "address"
        },
        {
          "internalType": "string",
          "name": "courseData",
          "type": "string"
        }
      ],
      "stateMutability": "view",
      "type": "function"
    },
    {
      "inputs": [
        {
          "internalType": "string",
          "name": "_courseData",
          "type": "string"
        }
      ],
      "name": "createCourse",
      "outputs": [],
      "stateMutability": "nonpayable",
      "type": "function"
    },
    {
      "inputs": [
        {
          "internalType": "uint256",
          "name": "tokenId",
          "type": "uint256"
        }
      ],
      "name": "getApproved",
      "outputs": [
        {
          "internalType": "address",
          "name": "",
          "type": "address"
        }
      ],
      "stateMutability": "view",
      "type": "function"
    },
    {
      "inputs": [
        {
          "internalType": "uint256",
          "name": "tokenId",
          "type": "uint256"
        }
      ],
      "name": "getCertificate",
      "outputs": [
        {
          "components": [
            {
              "internalType": "string",
              "name": "courseId",
              "type": "string"
            },
            {
              "internalType": "string",
              "name": "details",
              "type": "string"
            }
          ],
          "internalType": "struct Elimu.Certificate",
          "name": "",
          "type": "tuple"
        }
      ],
      "stateMutability": "view",
      "type": "function"
    },
    {
      "inputs": [
        {
          "internalType": "address",
          "name": "owner",
          "type": "address"
        },
        {
          "internalType": "address",
          "name": "operator",
          "type": "address"
        }
      ],
      "name": "isApprovedForAll",
      "outputs": [
        {
          "internalType": "bool",
          "name": "",
          "type": "bool"
        }
      ],
      "stateMutability": "view",
      "type": "function"
    },
    {
      "inputs": [
        {
          "internalType": "address",
          "name": "recipient",
          "type": "address"
        },
        {
          "internalType": "string",
          "name": "courseId",
          "type": "string"
        },
        {
          "internalType": "string",
          "name": "details",
          "type": "string"
        },
        {
          "internalType": "string",
          "name": "tokenUri",
          "type": "string"
        }
      ],
      "name": "mintCertificate",
      "outputs": [
        {
          "internalType": "uint256",
          "name": "",
          "type": "uint256"
        }
      ],
      "stateMutability": "nonpayable",
      "type": "function"
    },
    {
      "inputs": [],
      "name": "name",
      "outputs": [
        {
          "internalType": "string",
          "name": "",
          "type": "string"
        }
      ],
      "stateMutability": "view",
      "type": "function"
    },
    {
      "inputs": [],
      "name": "owner",
      "outputs": [
        {
          "internalType": "address",
          "name": "",
          "type": "address"
        }
      ],
      "stateMutability": "view",
      "type": "function"
    },
    {
      "inputs": [
        {
          "internalType": "uint256",
          "name": "tokenId",
          "type": "uint256"
        }
      ],
      "name": "ownerOf",
      "outputs": [
        {
          "internalType": "address",
          "name": "",
          "type": "address"
        }
      ],
      "stateMutability": "view",
      "type": "function"
    },
    {
      "inputs": [],
      "name": "renounceOwnership",
      "outputs": [],
      "stateMutability": "nonpayable",
      "type": "function"
    },
    {
      "inputs": [
        {
          "internalType": "address",
          "name": "from",
          "type": "address"
        },
        {
          "internalType": "address",
          "name": "to",
          "type": "address"
        },
        {
          "internalType": "uint256",
          "name": "tokenId",
          "type": "uint256"
        }
      ],
      "name": "safeTransferFrom",
      "outputs": [],
      "stateMutability": "nonpayable",
      "type": "function"
    },
    {
      "inputs": [
        {
          "internalType": "address",
          "name": "from",
          "type": "address"
        },
        {
          "internalType": "address",
          "name": "to",
          "type": "address"
        },
        {
          "internalType": "uint256",
          "name": "tokenId",
          "type": "uint256"
        },
        {
          "internalType": "bytes",
          "name": "data",
          "type": "bytes"
        }
      ],
      "name": "safeTransferFrom",
      "outputs": [],
      "stateMutability": "nonpayable",
      "type": "function"
    },
    {
      "inputs": [
        {
          "internalType": "address",
          "name": "operator",
          "type": "address"
        },
        {
          "internalType": "bool",
          "name": "approved",
          "type": "bool"
        }
      ],
      "name": "setApprovalForAll",
      "outputs": [],
      "stateMutability": "nonpayable",
      "type": "function"
    },
    {
      "inputs": [
        {
          "internalType": "bytes4",
          "name": "interfaceId",
          "type": "bytes4"
        }
      ],
      "name": "supportsInterface",
      "outputs": [
        {
          "internalType": "bool",
          "name": "",
          "type": "bool"
        }
      ],
      "stateMutability": "view",
      "type": "function"
    },
    {
      "inputs": [],
      "name": "symbol",
      "outputs": [
        {
          "internalType": "string",
          "name": "",
          "type": "string"
        }
      ],
      "stateMutability": "view",
      "type": "function"
    },
    {
      "inputs": [
        {
          "internalType": "uint256",
          "name": "tokenId",
          "type": "uint256"
        }
      ],
      "name": "tokenURI",
      "outputs": [
        {
          "internalType": "string",
          "name": "",
          "type": "string"
        }
      ],
      "stateMutability": "view",
      "type": "function"
    },
    {
      "inputs": [
        {
          "internalType": "address",
          "name": "from",
          "type": "address"
        },
        {
          "internalType": "address",
          "name": "to",
          "type": "address"
        },
        {
          "internalType": "uint256",
          "name": "tokenId",
          "type": "uint256"
        }
      ],
      "name": "transferFrom",
      "outputs": [],
      "stateMutability": "nonpayable",
      "type": "function"
    },
    {
      "inputs": [
        {
          "internalType": "address",
          "name": "newOwner",
          "type": "address"
        }
      ],
      "name": "transferOwnership",
      "outputs": [],
      "stateMutability": "nonpayable",
      "type": "function"
    }
  ],
  "bytecode": "0x60806040523480156200001157600080fd5b506040518060400160405280600a81526020017f456c696d752043657274000000000000000000000000000000000000000000008152506040518060400160405280600381526020017f454c4d0000000000000000000000000000000000000000000000000000000000815250816000908051906020019062000096929190620001a6565b508060019080519060200190620000af929190620001a6565b505050620000d2620000c6620000d860201b60201c565b620000e060201b60201c565b620002bb565b600033905090565b6000600760009054906101000a900473ffffffffffffffffffffffffffffffffffffffff16905081600760006101000a81548173ffffffffffffffffffffffffffffffffffffffff021916908373ffffffffffffffffffffffffffffffffffffffff1602179055508173ffffffffffffffffffffffffffffffffffffffff168173ffffffffffffffffffffffffffffffffffffffff167f8be0079c531659141344cd1fd0a4f28419497f9722a3daafe3b4186f6b6457e060405160405180910390a35050565b828054620001b49062000256565b90600052602060002090601f016020900481019282620001d8576000855562000224565b82601f10620001f357805160ff191683800117855562000224565b8280016001018555821562000224579182015b828111156200022357825182559160200191906001019062000206565b5b50905062000233919062000237565b5090565b5b808211156200025257600081600090555060010162000238565b5090565b600060028204905060018216806200026f57607f821691505b602082108114156200028657620002856200028c565b5b50919050565b7f4e487b7100000000000000000000000000000000000000000000000000000000600052602260045260246000fd5b6137cf80620002cb6000396000f3fe608060405234801561001057600080fd5b50600436106101375760003560e01c8063715018a6116100b857806396f979d21161007c57806396f979d214610361578063a22cb46514610392578063b88d4fde146103ae578063c87b56dd146103ca578063e985e9c5146103fa578063f2fde38b1461042a57610137565b8063715018a6146102cf5780638a38ab2c146102d95780638da5cb5b146102f5578063929c01fd1461031357806395d89b411461034357610137565b806342842e0e116100ff57806342842e0e146101f257806351640fee1461020e5780636352211e1461023e578063663b3e221461026e57806370a082311461029f57610137565b806301ffc9a71461013c57806306fdde031461016c578063081812fc1461018a578063095ea7b3146101ba57806323b872dd146101d6575b600080fd5b61015660048036038101906101519190612953565b610446565b6040516101639190612e24565b60405180910390f35b6101746104a7565b6040516101819190612e3f565b60405180910390f35b6101a4600480360381019061019f91906129e6565b610539565b6040516101b19190612d8d565b60405180910390f35b6101d460048036038101906101cf9190612917565b61057f565b005b6101f060048036038101906101eb9190612766565b610697565b005b61020c60048036038101906102079190612766565b6106f7565b005b610228600480360381019061022391906129e6565b610717565b6040516102359190613078565b60405180910390f35b610258600480360381019061025391906129e6565b6108b0565b6040516102659190612d8d565b60405180910390f35b610288600480360381019061028391906129e6565b610937565b604051610296929190612e61565b60405180910390f35b6102b960048036038101906102b49190612701565b610a6b565b6040516102c6919061309a565b60405180910390f35b6102d7610b23565b005b6102f360048036038101906102ee91906129a5565b610b37565b005b6102fd610cf0565b60405161030a9190612d8d565b60405180910390f35b61032d6004803603810190610328919061286c565b610d1a565b60405161033a919061309a565b60405180910390f35b61034b610df8565b6040516103589190612e3f565b60405180910390f35b61037b600480360381019061037691906129e6565b610e8a565b604051610389929190612df4565b60405180910390f35b6103ac60048036038101906103a79190612830565b610f66565b005b6103c860048036038101906103c391906127b5565b610f7c565b005b6103e460048036038101906103df91906129e6565b610fde565b6040516103f19190612e3f565b60405180910390f35b610414600480360381019061040f919061272a565b6110f1565b6040516104219190612e24565b60405180910390f35b610444600480360381019061043f9190612701565b611185565b005b6000634906490660e01b7bffffffffffffffffffffffffffffffffffffffffffffffffffffffff1916827bffffffffffffffffffffffffffffffffffffffffffffffffffffffff191614806104a0575061049f82611209565b5b9050919050565b6060600080546104b6906132ae565b80601f01602080910402602001604051908101604052809291908181526020018280546104e2906132ae565b801561052f5780601f106105045761010080835404028352916020019161052f565b820191906000526020600020905b81548152906001019060200180831161051257829003601f168201915b5050505050905090565b6000610544826112eb565b6004600083815260200190815260200160002060009054906101000a900473ffffffffffffffffffffffffffffffffffffffff169050919050565b600061058a826108b0565b90508073ffffffffffffffffffffffffffffffffffffffff168373ffffffffffffffffffffffffffffffffffffffff1614156105fb576040517f08c379a00000000000000000000000000000000000000000000000000000000081526004016105f290613038565b60405180910390fd5b8073ffffffffffffffffffffffffffffffffffffffff1661061a611336565b73ffffffffffffffffffffffffffffffffffffffff161480610649575061064881610643611336565b6110f1565b5b610688576040517f08c379a000000000000000000000000000000000000000000000000000000000815260040161067f90613058565b60405180910390fd5b610692838361133e565b505050565b6106a86106a2611336565b826113f7565b6106e7576040517f08c379a00000000000000000000000000000000000000000000000000000000081526004016106de90612e98565b60405180910390fd5b6106f283838361148c565b505050565b61071283838360405180602001604052806000815250610f7c565b505050565b61071f612481565b61072882611786565b610767576040517f08c379a000000000000000000000000000000000000000000000000000000000815260040161075e90612ff8565b60405180910390fd5b600b6000838152602001908152602001600020604051806040016040529081600082018054610795906132ae565b80601f01602080910402602001604051908101604052809291908181526020018280546107c1906132ae565b801561080e5780601f106107e35761010080835404028352916020019161080e565b820191906000526020600020905b8154815290600101906020018083116107f157829003601f168201915b50505050508152602001600182018054610827906132ae565b80601f0160208091040260200160405190810160405280929190818152602001828054610853906132ae565b80156108a05780601f10610875576101008083540402835291602001916108a0565b820191906000526020600020905b81548152906001019060200180831161088357829003601f168201915b5050505050815250509050919050565b6000806108bc836117c7565b9050600073ffffffffffffffffffffffffffffffffffffffff168173ffffffffffffffffffffffffffffffffffffffff16141561092e576040517f08c379a000000000000000000000000000000000000000000000000000000000815260040161092590613018565b60405180910390fd5b80915050919050565b600b60205280600052604060002060009150905080600001805461095a906132ae565b80601f0160208091040260200160405190810160405280929190818152602001828054610986906132ae565b80156109d35780601f106109a8576101008083540402835291602001916109d3565b820191906000526020600020905b8154815290600101906020018083116109b657829003601f168201915b5050505050908060010180546109e8906132ae565b80601f0160208091040260200160405190810160405280929190818152602001828054610a14906132ae565b8015610a615780601f10610a3657610100808354040283529160200191610a61565b820191906000526020600020905b815481529060010190602001808311610a4457829003601f168201915b5050505050905082565b60008073ffffffffffffffffffffffffffffffffffffffff168273ffffffffffffffffffffffffffffffffffffffff161415610adc576040517f08c379a0000000000000000000000000000000000000000000000000000000008152600401610ad390612f78565b60405180910390fd5b600360008373ffffffffffffffffffffffffffffffffffffffff1673ffffffffffffffffffffffffffffffffffffffff168152602001908152602001600020549050919050565b610b2b611804565b610b356000611882565b565b610b416008611948565b6000610b4d600861195e565b9050600a60405180606001604052803373ffffffffffffffffffffffffffffffffffffffff168152602001848152602001600067ffffffffffffffff811115610bbf577f4e487b7100000000000000000000000000000000000000000000000000000000600052604160045260246000fd5b604051908082528060200260200182016040528015610bed5781602001602082028036833780820191505090505b50815250908060018154018082558091505060019003906000526020600020906003020160009091909190915060008201518160000160006101000a81548173ffffffffffffffffffffffffffffffffffffffff021916908373ffffffffffffffffffffffffffffffffffffffff1602179055506020820151816001019080519060200190610c7d92919061249b565b506040820151816002019080519060200190610c9a929190612521565b5050503373ffffffffffffffffffffffffffffffffffffffff16817fd26ee57739c2f8845178c96a37348973f3edc5907d342cdf65382f9a84474b8984604051610ce49190612e3f565b60405180910390a35050565b6000600760009054906101000a900473ffffffffffffffffffffffffffffffffffffffff16905090565b6000610d266009611948565b6000610d32600961195e565b9050610d3e868261196c565b610d48818461198a565b604051806040016040528086815260200185815250600b60008381526020019081526020016000206000820151816000019080519060200190610d8c92919061249b565b506020820151816001019080519060200190610da992919061249b565b509050507f22817c0e474339faddc0e52650c24f673575a920e491295c07f517da3a4039c28187878787604051610de49594939291906130b5565b60405180910390a180915050949350505050565b606060018054610e07906132ae565b80601f0160208091040260200160405190810160405280929190818152602001828054610e33906132ae565b8015610e805780601f10610e5557610100808354040283529160200191610e80565b820191906000526020600020905b815481529060010190602001808311610e6357829003601f168201915b5050505050905090565b600a8181548110610e9a57600080fd5b90600052602060002090600302016000915090508060000160009054906101000a900473ffffffffffffffffffffffffffffffffffffffff1690806001018054610ee3906132ae565b80601f0160208091040260200160405190810160405280929190818152602001828054610f0f906132ae565b8015610f5c5780601f10610f3157610100808354040283529160200191610f5c565b820191906000526020600020905b815481529060010190602001808311610f3f57829003601f168201915b5050505050905082565b610f78610f71611336565b8383611a35565b5050565b610f8d610f87611336565b836113f7565b610fcc576040517f08c379a0000000000000000000000000000000000000000000000000000000008152600401610fc390612e98565b60405180910390fd5b610fd884848484611ba2565b50505050565b6060610fe9826112eb565b6000600660008481526020019081526020016000208054611009906132ae565b80601f0160208091040260200160405190810160405280929190818152602001828054611035906132ae565b80156110825780601f1061105757610100808354040283529160200191611082565b820191906000526020600020905b81548152906001019060200180831161106557829003601f168201915b505050505090506000611093611bfe565b90506000815114156110a95781925050506110ec565b6000825111156110de5780826040516020016110c6929190612d69565b604051602081830303815290604052925050506110ec565b6110e784611c15565b925050505b919050565b6000600560008473ffffffffffffffffffffffffffffffffffffffff1673ffffffffffffffffffffffffffffffffffffffff16815260200190815260200160002060008373ffffffffffffffffffffffffffffffffffffffff1673ffffffffffffffffffffffffffffffffffffffff16815260200190815260200160002060009054906101000a900460ff16905092915050565b61118d611804565b600073ffffffffffffffffffffffffffffffffffffffff168173ffffffffffffffffffffffffffffffffffffffff1614156111fd576040517f08c379a00000000000000000000000000000000000000000000000000000000081526004016111f490612ed8565b60405180910390fd5b61120681611882565b50565b60007f80ac58cd000000000000000000000000000000000000000000000000000000007bffffffffffffffffffffffffffffffffffffffffffffffffffffffff1916827bffffffffffffffffffffffffffffffffffffffffffffffffffffffff191614806112d457507f5b5e139f000000000000000000000000000000000000000000000000000000007bffffffffffffffffffffffffffffffffffffffffffffffffffffffff1916827bffffffffffffffffffffffffffffffffffffffffffffffffffffffff1916145b806112e457506112e382611c7d565b5b9050919050565b6112f481611786565b611333576040517f08c379a000000000000000000000000000000000000000000000000000000000815260040161132a90613018565b60405180910390fd5b50565b600033905090565b816004600083815260200190815260200160002060006101000a81548173ffffffffffffffffffffffffffffffffffffffff021916908373ffffffffffffffffffffffffffffffffffffffff160217905550808273ffffffffffffffffffffffffffffffffffffffff166113b1836108b0565b73ffffffffffffffffffffffffffffffffffffffff167f8c5be1e5ebec7d5bd14f71427d1e84f3dd0314c0f7b2291e5b200ac8c7c3b92560405160405180910390a45050565b600080611403836108b0565b90508073ffffffffffffffffffffffffffffffffffffffff168473ffffffffffffffffffffffffffffffffffffffff161480611445575061144481856110f1565b5b8061148357508373ffffffffffffffffffffffffffffffffffffffff1661146b84610539565b73ffffffffffffffffffffffffffffffffffffffff16145b91505092915050565b8273ffffffffffffffffffffffffffffffffffffffff166114ac826108b0565b73ffffffffffffffffffffffffffffffffffffffff1614611502576040517f08c379a00000000000000000000000000000000000000000000000000000000081526004016114f990612ef8565b60405180910390fd5b600073ffffffffffffffffffffffffffffffffffffffff168273ffffffffffffffffffffffffffffffffffffffff161415611572576040517f08c379a000000000000000000000000000000000000000000000000000000000815260040161156990612f38565b60405180910390fd5b61157f8383836001611ce7565b8273ffffffffffffffffffffffffffffffffffffffff1661159f826108b0565b73ffffffffffffffffffffffffffffffffffffffff16146115f5576040517f08c379a00000000000000000000000000000000000000000000000000000000081526004016115ec90612ef8565b60405180910390fd5b6004600082815260200190815260200160002060006101000a81549073ffffffffffffffffffffffffffffffffffffffff02191690556001600360008573ffffffffffffffffffffffffffffffffffffffff1673ffffffffffffffffffffffffffffffffffffffff168152602001908152602001600020600082825403925050819055506001600360008473ffffffffffffffffffffffffffffffffffffffff1673ffffffffffffffffffffffffffffffffffffffff16815260200190815260200160002060008282540192505081905550816002600083815260200190815260200160002060006101000a81548173ffffffffffffffffffffffffffffffffffffffff021916908373ffffffffffffffffffffffffffffffffffffffff160217905550808273ffffffffffffffffffffffffffffffffffffffff168473ffffffffffffffffffffffffffffffffffffffff167fddf252ad1be2c89b69c2b068fc378daa952ba7f163c4a11628f55a4df523b3ef60405160405180910390a46117818383836001611ced565b505050565b60008073ffffffffffffffffffffffffffffffffffffffff166117a8836117c7565b73ffffffffffffffffffffffffffffffffffffffff1614159050919050565b60006002600083815260200190815260200160002060009054906101000a900473ffffffffffffffffffffffffffffffffffffffff169050919050565b61180c611336565b73ffffffffffffffffffffffffffffffffffffffff1661182a610cf0565b73ffffffffffffffffffffffffffffffffffffffff1614611880576040517f08c379a000000000000000000000000000000000000000000000000000000000815260040161187790612fd8565b60405180910390fd5b565b6000600760009054906101000a900473ffffffffffffffffffffffffffffffffffffffff16905081600760006101000a81548173ffffffffffffffffffffffffffffffffffffffff021916908373ffffffffffffffffffffffffffffffffffffffff1602179055508173ffffffffffffffffffffffffffffffffffffffff168173ffffffffffffffffffffffffffffffffffffffff167f8be0079c531659141344cd1fd0a4f28419497f9722a3daafe3b4186f6b6457e060405160405180910390a35050565b6001816000016000828254019250508190555050565b600081600001549050919050565b611986828260405180602001604052806000815250611cf3565b5050565b61199382611786565b6119d2576040517f08c379a00000000000000000000000000000000000000000000000000000000081526004016119c990612f98565b60405180910390fd5b806006600084815260200190815260200160002090805190602001906119f992919061249b565b507ff8e1a15aba9398e019f0b49df1a4fde98ee17ae345cb5f6b5e2c27f5033e8ce782604051611a29919061309a565b60405180910390a15050565b8173ffffffffffffffffffffffffffffffffffffffff168373ffffffffffffffffffffffffffffffffffffffff161415611aa4576040517f08c379a0000000000000000000000000000000000000000000000000000000008152600401611a9b90612f58565b60405180910390fd5b80600560008573ffffffffffffffffffffffffffffffffffffffff1673ffffffffffffffffffffffffffffffffffffffff16815260200190815260200160002060008473ffffffffffffffffffffffffffffffffffffffff1673ffffffffffffffffffffffffffffffffffffffff16815260200190815260200160002060006101000a81548160ff0219169083151502179055508173ffffffffffffffffffffffffffffffffffffffff168373ffffffffffffffffffffffffffffffffffffffff167f17307eab39ab6107e8899845ad3d59bd9653f200f220920489ca2b5937696c3183604051611b959190612e24565b60405180910390a3505050565b611bad84848461148c565b611bb984848484611d4e565b611bf8576040517f08c379a0000000000000000000000000000000000000000000000000000000008152600401611bef90612eb8565b60405180910390fd5b50505050565b606060405180602001604052806000815250905090565b6060611c20826112eb565b6000611c2a611bfe565b90506000815111611c4a5760405180602001604052806000815250611c75565b80611c5484611ee5565b604051602001611c65929190612d69565b6040516020818303038152906040525b915050919050565b60007f01ffc9a7000000000000000000000000000000000000000000000000000000007bffffffffffffffffffffffffffffffffffffffffffffffffffffffff1916827bffffffffffffffffffffffffffffffffffffffffffffffffffffffff1916149050919050565b50505050565b50505050565b611cfd8383612009565b611d0a6000848484611d4e565b611d49576040517f08c379a0000000000000000000000000000000000000000000000000000000008152600401611d4090612eb8565b60405180910390fd5b505050565b6000611d6f8473ffffffffffffffffffffffffffffffffffffffff16612227565b15611ed8578373ffffffffffffffffffffffffffffffffffffffff1663150b7a02611d98611336565b8786866040518563ffffffff1660e01b8152600401611dba9493929190612da8565b602060405180830381600087803b158015611dd457600080fd5b505af1925050508015611e0557506040513d601f19601f82011682018060405250810190611e02919061297c565b60015b611e88573d8060008114611e35576040519150601f19603f3d011682016040523d82523d6000602084013e611e3a565b606091505b50600081511415611e80576040517f08c379a0000000000000000000000000000000000000000000000000000000008152600401611e7790612eb8565b60405180910390fd5b805181602001fd5b63150b7a0260e01b7bffffffffffffffffffffffffffffffffffffffffffffffffffffffff1916817bffffffffffffffffffffffffffffffffffffffffffffffffffffffff191614915050611edd565b600190505b949350505050565b606060006001611ef48461224a565b01905060008167ffffffffffffffff811115611f39577f4e487b7100000000000000000000000000000000000000000000000000000000600052604160045260246000fd5b6040519080825280601f01601f191660200182016040528015611f6b5781602001600182028036833780820191505090505b509050600082602001820190505b600115611ffe578080600190039150507f3031323334353637383961626364656600000000000000000000000000000000600a86061a8153600a8581611fe8577f4e487b7100000000000000000000000000000000000000000000000000000000600052601260045260246000fd5b0494506000851415611ff957611ffe565b611f79565b819350505050919050565b600073ffffffffffffffffffffffffffffffffffffffff168273ffffffffffffffffffffffffffffffffffffffff161415612079576040517f08c379a000000000000000000000000000000000000000000000000000000000815260040161207090612fb8565b60405180910390fd5b61208281611786565b156120c2576040517f08c379a00000000000000000000000000000000000000000000000000000000081526004016120b990612f18565b60405180910390fd5b6120d0600083836001611ce7565b6120d981611786565b15612119576040517f08c379a000000000000000000000000000000000000000000000000000000000815260040161211090612f18565b60405180910390fd5b6001600360008473ffffffffffffffffffffffffffffffffffffffff1673ffffffffffffffffffffffffffffffffffffffff16815260200190815260200160002060008282540192505081905550816002600083815260200190815260200160002060006101000a81548173ffffffffffffffffffffffffffffffffffffffff021916908373ffffffffffffffffffffffffffffffffffffffff160217905550808273ffffffffffffffffffffffffffffffffffffffff16600073ffffffffffffffffffffffffffffffffffffffff167fddf252ad1be2c89b69c2b068fc378daa952ba7f163c4a11628f55a4df523b3ef60405160405180910390a4612223600083836001611ced565b5050565b6000808273ffffffffffffffffffffffffffffffffffffffff163b119050919050565b600080600090507a184f03e93ff9f4daa797ed6e38ed64bf6a1f01000000000000000083106122ce577a184f03e93ff9f4daa797ed6e38ed64bf6a1f01000000000000000083816122c4577f4e487b7100000000000000000000000000000000000000000000000000000000600052601260045260246000fd5b0492506040810190505b6d04ee2d6d415b85acef81000000008310612331576d04ee2d6d415b85acef81000000008381612327577f4e487b7100000000000000000000000000000000000000000000000000000000600052601260045260246000fd5b0492506020810190505b662386f26fc10000831061238657662386f26fc10000838161237c577f4e487b7100000000000000000000000000000000000000000000000000000000600052601260045260246000fd5b0492506010810190505b6305f5e10083106123d5576305f5e10083816123cb577f4e487b7100000000000000000000000000000000000000000000000000000000600052601260045260246000fd5b0492506008810190505b6127108310612420576127108381612416577f4e487b7100000000000000000000000000000000000000000000000000000000600052601260045260246000fd5b0492506004810190505b60648310612469576064838161245f577f4e487b7100000000000000000000000000000000000000000000000000000000600052601260045260246000fd5b0492506002810190505b600a8310612478576001810190505b80915050919050565b604051806040016040528060608152602001606081525090565b8280546124a7906132ae565b90600052602060002090601f0160209004810192826124c95760008555612510565b82601f106124e257805160ff1916838001178555612510565b82800160010185558215612510579182015b8281111561250f5782518255916020019190600101906124f4565b5b50905061251d91906125ab565b5090565b82805482825590600052602060002090810192821561259a579160200282015b828111156125995782518260006101000a81548173ffffffffffffffffffffffffffffffffffffffff021916908373ffffffffffffffffffffffffffffffffffffffff16021790555091602001919060010190612541565b5b5090506125a791906125ab565b5090565b5b808211156125c45760008160009055506001016125ac565b5090565b60006125db6125d684613142565b61311d565b9050828152602081018484840111156125f357600080fd5b6125fe84828561326c565b509392505050565b600061261961261484613173565b61311d565b90508281526020810184848401111561263157600080fd5b61263c84828561326c565b509392505050565b6000813590506126538161373d565b92915050565b60008135905061266881613754565b92915050565b60008135905061267d8161376b565b92915050565b6000815190506126928161376b565b92915050565b600082601f8301126126a957600080fd5b81356126b98482602086016125c8565b91505092915050565b600082601f8301126126d357600080fd5b81356126e3848260208601612606565b91505092915050565b6000813590506126fb81613782565b92915050565b60006020828403121561271357600080fd5b600061272184828501612644565b91505092915050565b6000806040838503121561273d57600080fd5b600061274b85828601612644565b925050602061275c85828601612644565b9150509250929050565b60008060006060848603121561277b57600080fd5b600061278986828701612644565b935050602061279a86828701612644565b92505060406127ab868287016126ec565b9150509250925092565b600080600080608085870312156127cb57600080fd5b60006127d987828801612644565b94505060206127ea87828801612644565b93505060406127fb878288016126ec565b925050606085013567ffffffffffffffff81111561281857600080fd5b61282487828801612698565b91505092959194509250565b6000806040838503121561284357600080fd5b600061285185828601612644565b925050602061286285828601612659565b9150509250929050565b6000806000806080858703121561288257600080fd5b600061289087828801612644565b945050602085013567ffffffffffffffff8111156128ad57600080fd5b6128b9878288016126c2565b935050604085013567ffffffffffffffff8111156128d657600080fd5b6128e2878288016126c2565b925050606085013567ffffffffffffffff8111156128ff57600080fd5b61290b878288016126c2565b91505092959194509250565b6000806040838503121561292a57600080fd5b600061293885828601612644565b9250506020612949858286016126ec565b9150509250929050565b60006020828403121561296557600080fd5b60006129738482850161266e565b91505092915050565b60006020828403121561298e57600080fd5b600061299c84828501612683565b91505092915050565b6000602082840312156129b757600080fd5b600082013567ffffffffffffffff8111156129d157600080fd5b6129dd848285016126c2565b91505092915050565b6000602082840312156129f857600080fd5b6000612a06848285016126ec565b91505092915050565b612a18816131f8565b82525050565b612a278161320a565b82525050565b6000612a38826131a4565b612a4281856131ba565b9350612a5281856020860161327b565b612a5b8161336f565b840191505092915050565b6000612a71826131af565b612a7b81856131cb565b9350612a8b81856020860161327b565b612a948161336f565b840191505092915050565b6000612aaa826131af565b612ab481856131dc565b9350612ac481856020860161327b565b612acd8161336f565b840191505092915050565b6000612ae3826131af565b612aed81856131ed565b9350612afd81856020860161327b565b80840191505092915050565b6000612b16602d836131dc565b9150612b2182613380565b604082019050919050565b6000612b396032836131dc565b9150612b44826133cf565b604082019050919050565b6000612b5c6026836131dc565b9150612b678261341e565b604082019050919050565b6000612b7f6025836131dc565b9150612b8a8261346d565b604082019050919050565b6000612ba2601c836131dc565b9150612bad826134bc565b602082019050919050565b6000612bc56024836131dc565b9150612bd0826134e5565b604082019050919050565b6000612be86019836131dc565b9150612bf382613534565b602082019050919050565b6000612c0b6029836131dc565b9150612c168261355d565b604082019050919050565b6000612c2e602e836131dc565b9150612c39826135ac565b604082019050919050565b6000612c516020836131dc565b9150612c5c826135fb565b602082019050919050565b6000612c746020836131dc565b9150612c7f82613624565b602082019050919050565b6000612c97601a836131dc565b9150612ca28261364d565b602082019050919050565b6000612cba6018836131dc565b9150612cc582613676565b602082019050919050565b6000612cdd6021836131dc565b9150612ce88261369f565b604082019050919050565b6000612d00603d836131dc565b9150612d0b826136ee565b604082019050919050565b60006040830160008301518482036000860152612d338282612a66565b91505060208301518482036020860152612d4d8282612a66565b9150508091505092915050565b612d6381613262565b82525050565b6000612d758285612ad8565b9150612d818284612ad8565b91508190509392505050565b6000602082019050612da26000830184612a0f565b92915050565b6000608082019050612dbd6000830187612a0f565b612dca6020830186612a0f565b612dd76040830185612d5a565b8181036060830152612de98184612a2d565b905095945050505050565b6000604082019050612e096000830185612a0f565b8181036020830152612e1b8184612a9f565b90509392505050565b6000602082019050612e396000830184612a1e565b92915050565b60006020820190508181036000830152612e598184612a9f565b905092915050565b60006040820190508181036000830152612e7b8185612a9f565b90508181036020830152612e8f8184612a9f565b90509392505050565b60006020820190508181036000830152612eb181612b09565b9050919050565b60006020820190508181036000830152612ed181612b2c565b9050919050565b60006020820190508181036000830152612ef181612b4f565b9050919050565b60006020820190508181036000830152612f1181612b72565b9050919050565b60006020820190508181036000830152612f3181612b95565b9050919050565b60006020820190508181036000830152612f5181612bb8565b9050919050565b60006020820190508181036000830152612f7181612bdb565b9050919050565b60006020820190508181036000830152612f9181612bfe565b9050919050565b60006020820190508181036000830152612fb181612c21565b9050919050565b60006020820190508181036000830152612fd181612c44565b9050919050565b60006020820190508181036000830152612ff181612c67565b9050919050565b6000602082019050818103600083015261301181612c8a565b9050919050565b6000602082019050818103600083015261303181612cad565b9050919050565b6000602082019050818103600083015261305181612cd0565b9050919050565b6000602082019050818103600083015261307181612cf3565b9050919050565b600060208201905081810360008301526130928184612d16565b905092915050565b60006020820190506130af6000830184612d5a565b92915050565b600060a0820190506130ca6000830188612d5a565b6130d76020830187612a0f565b81810360408301526130e98186612a9f565b905081810360608301526130fd8185612a9f565b905081810360808301526131118184612a9f565b90509695505050505050565b6000613127613138565b905061313382826132e0565b919050565b6000604051905090565b600067ffffffffffffffff82111561315d5761315c613340565b5b6131668261336f565b9050602081019050919050565b600067ffffffffffffffff82111561318e5761318d613340565b5b6131978261336f565b9050602081019050919050565b600081519050919050565b600081519050919050565b600082825260208201905092915050565b600082825260208201905092915050565b600082825260208201905092915050565b600081905092915050565b600061320382613242565b9050919050565b60008115159050919050565b60007fffffffff0000000000000000000000000000000000000000000000000000000082169050919050565b600073ffffffffffffffffffffffffffffffffffffffff82169050919050565b6000819050919050565b82818337600083830152505050565b60005b8381101561329957808201518184015260208101905061327e565b838111156132a8576000848401525b50505050565b600060028204905060018216806132c657607f821691505b602082108114156132da576132d9613311565b5b50919050565b6132e98261336f565b810181811067ffffffffffffffff8211171561330857613307613340565b5b80604052505050565b7f4e487b7100000000000000000000000000000000000000000000000000000000600052602260045260246000fd5b7f4e487b7100000000000000000000000000000000000000000000000000000000600052604160045260246000fd5b6000601f19601f8301169050919050565b7f4552433732313a2063616c6c6572206973206e6f7420746f6b656e206f776e6560008201527f72206f7220617070726f76656400000000000000000000000000000000000000602082015250565b7f4552433732313a207472616e7366657220746f206e6f6e20455243373231526560008201527f63656976657220696d706c656d656e7465720000000000000000000000000000602082015250565b7f4f776e61626c653a206e6577206f776e657220697320746865207a65726f206160008201527f6464726573730000000000000000000000000000000000000000000000000000602082015250565b7f4552433732313a207472616e736665722066726f6d20696e636f72726563742060008201527f6f776e6572000000000000000000000000000000000000000000000000000000602082015250565b7f4552433732313a20746f6b656e20616c7265616479206d696e74656400000000600082015250565b7f4552433732313a207472616e7366657220746f20746865207a65726f2061646460008201527f7265737300000000000000000000000000000000000000000000000000000000602082015250565b7f4552433732313a20617070726f766520746f2063616c6c657200000000000000600082015250565b7f4552433732313a2061646472657373207a65726f206973206e6f74206120766160008201527f6c6964206f776e65720000000000000000000000000000000000000000000000602082015250565b7f45524337323155524953746f726167653a2055524920736574206f66206e6f6e60008201527f6578697374656e7420746f6b656e000000000000000000000000000000000000602082015250565b7f4552433732313a206d696e7420746f20746865207a65726f2061646472657373600082015250565b7f4f776e61626c653a2063616c6c6572206973206e6f7420746865206f776e6572600082015250565b7f436572746966696361746520646f6573206e6f74206578697374000000000000600082015250565b7f4552433732313a20696e76616c696420746f6b656e2049440000000000000000600082015250565b7f4552433732313a20617070726f76616c20746f2063757272656e74206f776e6560008201527f7200000000000000000000000000000000000000000000000000000000000000602082015250565b7f4552433732313a20617070726f76652063616c6c6572206973206e6f7420746f60008201527f6b656e206f776e6572206f7220617070726f76656420666f7220616c6c000000602082015250565b613746816131f8565b811461375157600080fd5b50565b61375d8161320a565b811461376857600080fd5b50565b61377481613216565b811461377f57600080fd5b50565b61378b81613262565b811461379657600080fd5b5056fea264697066735822122057497ac606fb32d47a4903f5e87e1e6ea96eec5fb17e7429be661f5ab2b0f35664736f6c63430008040033",
  "linkReferences": {},
  "deployedLinkReferences": {}
}