{
  "_format": "hh-sol-artifact-1",
  "contractName": "Elimu",
  "sourceName": "contracts/Elimu.sol",
  "abi": [
    {
      "inputs": [],
      "stateMutability": "nonpayable",
      "type": "constructor"
    },
    {
      "anonymous": false,
      "inputs": [
        {
          "indexed": true,
          "internalType": "address",
          "name": "owner",
          "type": "address"
        },
        {
          "indexed": true,
          "internalType": "address",
          "name": "approved",
          "type": "address"
        },
        {
          "indexed": true,
          "internalType": "uint256",
          "name": "tokenId",
          "type": "uint256"
        }
      ],
      "name": "Approval",
      "type": "event"
    },
    {
      "anonymous": false,
      "inputs": [
        {
          "indexed": true,
          "internalType": "address",
          "name": "owner",
          "type": "address"
        },
        {
          "indexed": true,
          "internalType": "address",
          "name": "operator",
          "type": "address"
        },
        {
          "indexed": false,
          "internalType": "bool",
          "name": "approved",
          "type": "bool"
        }
      ],
      "name": "ApprovalForAll",
      "type": "event"
    },
    {
      "anonymous": false,
      "inputs": [
        {
          "indexed": false,
          "internalType": "uint256",
          "name": "_fromTokenId",
          "type": "uint256"
        },
        {
          "indexed": false,
          "internalType": "uint256",
          "name": "_toTokenId",
          "type": "uint256"
        }
      ],
      "name": "BatchMetadataUpdate",
      "type": "event"
    },
    {
      "anonymous": false,
      "inputs": [
        {
          "indexed": false,
          "internalType": "uint256",
          "name": "tokenId",
          "type": "uint256"
        },
        {
          "indexed": false,
          "internalType": "address",
          "name": "owner",
          "type": "address"
        },
        {
          "indexed": false,
          "internalType": "uint256",
          "name": "courseId",
          "type": "uint256"
        },
        {
          "indexed": false,
          "internalType": "string",
          "name": "details",
          "type": "string"
        },
        {
          "indexed": false,
          "internalType": "string",
          "name": "tokenUri",
          "type": "string"
        }
      ],
      "name": "CertificateMinted",
      "type": "event"
    },
    {
      "anonymous": false,
      "inputs": [
        {
          "indexed": false,
          "internalType": "uint256",
          "name": "_tokenId",
          "type": "uint256"
        }
      ],
      "name": "MetadataUpdate",
      "type": "event"
    },
    {
      "anonymous": false,
      "inputs": [
        {
          "indexed": true,
          "internalType": "address",
          "name": "previousOwner",
          "type": "address"
        },
        {
          "indexed": true,
          "internalType": "address",
          "name": "newOwner",
          "type": "address"
        }
      ],
      "name": "OwnershipTransferred",
      "type": "event"
    },
    {
      "anonymous": false,
      "inputs": [
        {
          "indexed": true,
          "internalType": "address",
          "name": "from",
          "type": "address"
        },
        {
          "indexed": true,
          "internalType": "address",
          "name": "to",
          "type": "address"
        },
        {
          "indexed": true,
          "internalType": "uint256",
          "name": "tokenId",
          "type": "uint256"
        }
      ],
      "name": "Transfer",
      "type": "event"
    },
    {
      "inputs": [
        {
          "internalType": "address",
          "name": "to",
          "type": "address"
        },
        {
          "internalType": "uint256",
          "name": "tokenId",
          "type": "uint256"
        }
      ],
      "name": "approve",
      "outputs": [],
      "stateMutability": "nonpayable",
      "type": "function"
    },
    {
      "inputs": [
        {
          "internalType": "address",
          "name": "owner",
          "type": "address"
        }
      ],
      "name": "balanceOf",
      "outputs": [
        {
          "internalType": "uint256",
          "name": "",
          "type": "uint256"
        }
      ],
      "stateMutability": "view",
      "type": "function"
    },
    {
      "inputs": [
        {
          "internalType": "uint256",
          "name": "",
          "type": "uint256"
        }
      ],
      "name": "certificates",
      "outputs": [
        {
          "internalType": "uint256",
          "name": "courseId",
          "type": "uint256"
        },
        {
          "internalType": "string",
          "name": "details",
          "type": "string"
        }
      ],
      "stateMutability": "view",
      "type": "function"
    },
    {
      "inputs": [
        {
          "internalType": "uint256",
          "name": "tokenId",
          "type": "uint256"
        }
      ],
      "name": "getApproved",
      "outputs": [
        {
          "internalType": "address",
          "name": "",
          "type": "address"
        }
      ],
      "stateMutability": "view",
      "type": "function"
    },
    {
      "inputs": [
        {
          "internalType": "uint256",
          "name": "tokenId",
          "type": "uint256"
        }
      ],
      "name": "getCertificate",
      "outputs": [
        {
          "components": [
            {
              "internalType": "uint256",
              "name": "courseId",
              "type": "uint256"
            },
            {
              "internalType": "string",
              "name": "details",
              "type": "string"
            }
          ],
          "internalType": "struct Elimu.Certificate",
          "name": "",
          "type": "tuple"
        }
      ],
      "stateMutability": "view",
      "type": "function"
    },
    {
      "inputs": [
        {
          "internalType": "address",
          "name": "owner",
          "type": "address"
        },
        {
          "internalType": "address",
          "name": "operator",
          "type": "address"
        }
      ],
      "name": "isApprovedForAll",
      "outputs": [
        {
          "internalType": "bool",
          "name": "",
          "type": "bool"
        }
      ],
      "stateMutability": "view",
      "type": "function"
    },
    {
      "inputs": [
        {
          "internalType": "address",
          "name": "recipient",
          "type": "address"
        },
        {
          "internalType": "uint256",
          "name": "courseId",
          "type": "uint256"
        },
        {
          "internalType": "string",
          "name": "details",
          "type": "string"
        },
        {
          "internalType": "string",
          "name": "tokenUri",
          "type": "string"
        }
      ],
      "name": "mintCertificate",
      "outputs": [
        {
          "internalType": "uint256",
          "name": "",
          "type": "uint256"
        }
      ],
      "stateMutability": "nonpayable",
      "type": "function"
    },
    {
      "inputs": [],
      "name": "name",
      "outputs": [
        {
          "internalType": "string",
          "name": "",
          "type": "string"
        }
      ],
      "stateMutability": "view",
      "type": "function"
    },
    {
      "inputs": [],
      "name": "owner",
      "outputs": [
        {
          "internalType": "address",
          "name": "",
          "type": "address"
        }
      ],
      "stateMutability": "view",
      "type": "function"
    },
    {
      "inputs": [
        {
          "internalType": "uint256",
          "name": "tokenId",
          "type": "uint256"
        }
      ],
      "name": "ownerOf",
      "outputs": [
        {
          "internalType": "address",
          "name": "",
          "type": "address"
        }
      ],
      "stateMutability": "view",
      "type": "function"
    },
    {
      "inputs": [],
      "name": "renounceOwnership",
      "outputs": [],
      "stateMutability": "nonpayable",
      "type": "function"
    },
    {
      "inputs": [
        {
          "internalType": "address",
          "name": "from",
          "type": "address"
        },
        {
          "internalType": "address",
          "name": "to",
          "type": "address"
        },
        {
          "internalType": "uint256",
          "name": "tokenId",
          "type": "uint256"
        }
      ],
      "name": "safeTransferFrom",
      "outputs": [],
      "stateMutability": "nonpayable",
      "type": "function"
    },
    {
      "inputs": [
        {
          "internalType": "address",
          "name": "from",
          "type": "address"
        },
        {
          "internalType": "address",
          "name": "to",
          "type": "address"
        },
        {
          "internalType": "uint256",
          "name": "tokenId",
          "type": "uint256"
        },
        {
          "internalType": "bytes",
          "name": "data",
          "type": "bytes"
        }
      ],
      "name": "safeTransferFrom",
      "outputs": [],
      "stateMutability": "nonpayable",
      "type": "function"
    },
    {
      "inputs": [
        {
          "internalType": "address",
          "name": "operator",
          "type": "address"
        },
        {
          "internalType": "bool",
          "name": "approved",
          "type": "bool"
        }
      ],
      "name": "setApprovalForAll",
      "outputs": [],
      "stateMutability": "nonpayable",
      "type": "function"
    },
    {
      "inputs": [
        {
          "internalType": "bytes4",
          "name": "interfaceId",
          "type": "bytes4"
        }
      ],
      "name": "supportsInterface",
      "outputs": [
        {
          "internalType": "bool",
          "name": "",
          "type": "bool"
        }
      ],
      "stateMutability": "view",
      "type": "function"
    },
    {
      "inputs": [],
      "name": "symbol",
      "outputs": [
        {
          "internalType": "string",
          "name": "",
          "type": "string"
        }
      ],
      "stateMutability": "view",
      "type": "function"
    },
    {
      "inputs": [
        {
          "internalType": "uint256",
          "name": "tokenId",
          "type": "uint256"
        }
      ],
      "name": "tokenURI",
      "outputs": [
        {
          "internalType": "string",
          "name": "",
          "type": "string"
        }
      ],
      "stateMutability": "view",
      "type": "function"
    },
    {
      "inputs": [
        {
          "internalType": "address",
          "name": "from",
          "type": "address"
        },
        {
          "internalType": "address",
          "name": "to",
          "type": "address"
        },
        {
          "internalType": "uint256",
          "name": "tokenId",
          "type": "uint256"
        }
      ],
      "name": "transferFrom",
      "outputs": [],
      "stateMutability": "nonpayable",
      "type": "function"
    },
    {
      "inputs": [
        {
          "internalType": "address",
          "name": "newOwner",
          "type": "address"
        }
      ],
      "name": "transferOwnership",
      "outputs": [],
      "stateMutability": "nonpayable",
      "type": "function"
    }
  ],
  "bytecode": "0x60806040523480156200001157600080fd5b506040518060400160405280600a81526020017f456c696d752043657274000000000000000000000000000000000000000000008152506040518060400160405280600381526020017f454c4d0000000000000000000000000000000000000000000000000000000000815250816000908051906020019062000096929190620001a6565b508060019080519060200190620000af929190620001a6565b505050620000d2620000c6620000d860201b60201c565b620000e060201b60201c565b620002bb565b600033905090565b6000600760009054906101000a900473ffffffffffffffffffffffffffffffffffffffff16905081600760006101000a81548173ffffffffffffffffffffffffffffffffffffffff021916908373ffffffffffffffffffffffffffffffffffffffff1602179055508173ffffffffffffffffffffffffffffffffffffffff168173ffffffffffffffffffffffffffffffffffffffff167f8be0079c531659141344cd1fd0a4f28419497f9722a3daafe3b4186f6b6457e060405160405180910390a35050565b828054620001b49062000256565b90600052602060002090601f016020900481019282620001d8576000855562000224565b82601f10620001f357805160ff191683800117855562000224565b8280016001018555821562000224579182015b828111156200022357825182559160200191906001019062000206565b5b50905062000233919062000237565b5090565b5b808211156200025257600081600090555060010162000238565b5090565b600060028204905060018216806200026f57607f821691505b602082108114156200028657620002856200028c565b5b50919050565b7f4e487b7100000000000000000000000000000000000000000000000000000000600052602260045260246000fd5b61329b80620002cb6000396000f3fe608060405234801561001057600080fd5b50600436106101215760003560e01c806370a08231116100ad578063a22cb46511610071578063a22cb4651461032f578063b88d4fde1461034b578063c87b56dd14610367578063e985e9c514610397578063f2fde38b146103c757610121565b806370a0823114610289578063715018a6146102b95780638da5cb5b146102c35780638fefd32b146102e157806395d89b411461031157610121565b806323b872dd116100f457806323b872dd146101c057806342842e0e146101dc57806351640fee146101f85780636352211e14610228578063663b3e221461025857610121565b806301ffc9a71461012657806306fdde0314610156578063081812fc14610174578063095ea7b3146101a4575b600080fd5b610140600480360381019061013b9190612496565b6103e3565b60405161014d91906128fe565b60405180910390f35b61015e610444565b60405161016b9190612919565b60405180910390f35b61018e600480360381019061018991906124e8565b6104d6565b60405161019b9190612897565b60405180910390f35b6101be60048036038101906101b991906123c7565b61051c565b005b6101da60048036038101906101d591906122c1565b610634565b005b6101f660048036038101906101f191906122c1565b610694565b005b610212600480360381019061020d91906124e8565b6106b4565b60405161021f9190612b1b565b60405180910390f35b610242600480360381019061023d91906124e8565b6107c5565b60405161024f9190612897565b60405180910390f35b610272600480360381019061026d91906124e8565b61084c565b604051610280929190612bb9565b60405180910390f35b6102a3600480360381019061029e919061225c565b6108f8565b6040516102b09190612b3d565b60405180910390f35b6102c16109b0565b005b6102cb6109c4565b6040516102d89190612897565b60405180910390f35b6102fb60048036038101906102f69190612403565b6109ee565b6040516103089190612b3d565b60405180910390f35b610319610ab9565b6040516103269190612919565b60405180910390f35b6103496004803603810190610344919061238b565b610b4b565b005b61036560048036038101906103609190612310565b610b61565b005b610381600480360381019061037c91906124e8565b610bc3565b60405161038e9190612919565b60405180910390f35b6103b160048036038101906103ac9190612285565b610cd6565b6040516103be91906128fe565b60405180910390f35b6103e160048036038101906103dc919061225c565b610d6a565b005b6000634906490660e01b7bffffffffffffffffffffffffffffffffffffffffffffffffffffffff1916827bffffffffffffffffffffffffffffffffffffffffffffffffffffffff1916148061043d575061043c82610dee565b5b9050919050565b60606000805461045390612d7a565b80601f016020809104026020016040519081016040528092919081815260200182805461047f90612d7a565b80156104cc5780601f106104a1576101008083540402835291602001916104cc565b820191906000526020600020905b8154815290600101906020018083116104af57829003601f168201915b5050505050905090565b60006104e182610ed0565b6004600083815260200190815260200160002060009054906101000a900473ffffffffffffffffffffffffffffffffffffffff169050919050565b6000610527826107c5565b90508073ffffffffffffffffffffffffffffffffffffffff168373ffffffffffffffffffffffffffffffffffffffff161415610598576040517f08c379a000000000000000000000000000000000000000000000000000000000815260040161058f90612adb565b60405180910390fd5b8073ffffffffffffffffffffffffffffffffffffffff166105b7610f1b565b73ffffffffffffffffffffffffffffffffffffffff1614806105e657506105e5816105e0610f1b565b610cd6565b5b610625576040517f08c379a000000000000000000000000000000000000000000000000000000000815260040161061c90612afb565b60405180910390fd5b61062f8383610f23565b505050565b61064561063f610f1b565b82610fdc565b610684576040517f08c379a000000000000000000000000000000000000000000000000000000000815260040161067b9061293b565b60405180910390fd5b61068f838383611071565b505050565b6106af83838360405180602001604052806000815250610b61565b505050565b6106bc612066565b6106c58261136b565b610704576040517f08c379a00000000000000000000000000000000000000000000000000000000081526004016106fb90612a9b565b60405180910390fd5b600960008381526020019081526020016000206040518060400160405290816000820154815260200160018201805461073c90612d7a565b80601f016020809104026020016040519081016040528092919081815260200182805461076890612d7a565b80156107b55780601f1061078a576101008083540402835291602001916107b5565b820191906000526020600020905b81548152906001019060200180831161079857829003601f168201915b5050505050815250509050919050565b6000806107d1836113ac565b9050600073ffffffffffffffffffffffffffffffffffffffff168173ffffffffffffffffffffffffffffffffffffffff161415610843576040517f08c379a000000000000000000000000000000000000000000000000000000000815260040161083a90612abb565b60405180910390fd5b80915050919050565b600960205280600052604060002060009150905080600001549080600101805461087590612d7a565b80601f01602080910402602001604051908101604052809291908181526020018280546108a190612d7a565b80156108ee5780601f106108c3576101008083540402835291602001916108ee565b820191906000526020600020905b8154815290600101906020018083116108d157829003601f168201915b5050505050905082565b60008073ffffffffffffffffffffffffffffffffffffffff168273ffffffffffffffffffffffffffffffffffffffff161415610969576040517f08c379a000000000000000000000000000000000000000000000000000000000815260040161096090612a1b565b60405180910390fd5b600360008373ffffffffffffffffffffffffffffffffffffffff1673ffffffffffffffffffffffffffffffffffffffff168152602001908152602001600020549050919050565b6109b86113e9565b6109c26000611467565b565b6000600760009054906101000a900473ffffffffffffffffffffffffffffffffffffffff16905090565b60006109fa600861152d565b6000610a066008611543565b9050610a128682611551565b610a1c818461156f565b60405180604001604052808681526020018581525060096000838152602001908152602001600020600082015181600001556020820151816001019080519060200190610a6a929190612080565b509050507f9ae0cfbac8ccb2f26426960ee56b3314d14c0b9fa03b7a07acfd5ec27f09c08a8187878787604051610aa5959493929190612b58565b60405180910390a180915050949350505050565b606060018054610ac890612d7a565b80601f0160208091040260200160405190810160405280929190818152602001828054610af490612d7a565b8015610b415780601f10610b1657610100808354040283529160200191610b41565b820191906000526020600020905b815481529060010190602001808311610b2457829003601f168201915b5050505050905090565b610b5d610b56610f1b565b838361161a565b5050565b610b72610b6c610f1b565b83610fdc565b610bb1576040517f08c379a0000000000000000000000000000000000000000000000000000000008152600401610ba89061293b565b60405180910390fd5b610bbd84848484611787565b50505050565b6060610bce82610ed0565b6000600660008481526020019081526020016000208054610bee90612d7a565b80601f0160208091040260200160405190810160405280929190818152602001828054610c1a90612d7a565b8015610c675780601f10610c3c57610100808354040283529160200191610c67565b820191906000526020600020905b815481529060010190602001808311610c4a57829003601f168201915b505050505090506000610c786117e3565b9050600081511415610c8e578192505050610cd1565b600082511115610cc3578082604051602001610cab929190612873565b60405160208183030381529060405292505050610cd1565b610ccc846117fa565b925050505b919050565b6000600560008473ffffffffffffffffffffffffffffffffffffffff1673ffffffffffffffffffffffffffffffffffffffff16815260200190815260200160002060008373ffffffffffffffffffffffffffffffffffffffff1673ffffffffffffffffffffffffffffffffffffffff16815260200190815260200160002060009054906101000a900460ff16905092915050565b610d726113e9565b600073ffffffffffffffffffffffffffffffffffffffff168173ffffffffffffffffffffffffffffffffffffffff161415610de2576040517f08c379a0000000000000000000000000000000000000000000000000000000008152600401610dd99061297b565b60405180910390fd5b610deb81611467565b50565b60007f80ac58cd000000000000000000000000000000000000000000000000000000007bffffffffffffffffffffffffffffffffffffffffffffffffffffffff1916827bffffffffffffffffffffffffffffffffffffffffffffffffffffffff19161480610eb957507f5b5e139f000000000000000000000000000000000000000000000000000000007bffffffffffffffffffffffffffffffffffffffffffffffffffffffff1916827bffffffffffffffffffffffffffffffffffffffffffffffffffffffff1916145b80610ec95750610ec882611862565b5b9050919050565b610ed98161136b565b610f18576040517f08c379a0000000000000000000000000000000000000000000000000000000008152600401610f0f90612abb565b60405180910390fd5b50565b600033905090565b816004600083815260200190815260200160002060006101000a81548173ffffffffffffffffffffffffffffffffffffffff021916908373ffffffffffffffffffffffffffffffffffffffff160217905550808273ffffffffffffffffffffffffffffffffffffffff16610f96836107c5565b73ffffffffffffffffffffffffffffffffffffffff167f8c5be1e5ebec7d5bd14f71427d1e84f3dd0314c0f7b2291e5b200ac8c7c3b92560405160405180910390a45050565b600080610fe8836107c5565b90508073ffffffffffffffffffffffffffffffffffffffff168473ffffffffffffffffffffffffffffffffffffffff16148061102a57506110298185610cd6565b5b8061106857508373ffffffffffffffffffffffffffffffffffffffff16611050846104d6565b73ffffffffffffffffffffffffffffffffffffffff16145b91505092915050565b8273ffffffffffffffffffffffffffffffffffffffff16611091826107c5565b73ffffffffffffffffffffffffffffffffffffffff16146110e7576040517f08c379a00000000000000000000000000000000000000000000000000000000081526004016110de9061299b565b60405180910390fd5b600073ffffffffffffffffffffffffffffffffffffffff168273ffffffffffffffffffffffffffffffffffffffff161415611157576040517f08c379a000000000000000000000000000000000000000000000000000000000815260040161114e906129db565b60405180910390fd5b61116483838360016118cc565b8273ffffffffffffffffffffffffffffffffffffffff16611184826107c5565b73ffffffffffffffffffffffffffffffffffffffff16146111da576040517f08c379a00000000000000000000000000000000000000000000000000000000081526004016111d19061299b565b60405180910390fd5b6004600082815260200190815260200160002060006101000a81549073ffffffffffffffffffffffffffffffffffffffff02191690556001600360008573ffffffffffffffffffffffffffffffffffffffff1673ffffffffffffffffffffffffffffffffffffffff168152602001908152602001600020600082825403925050819055506001600360008473ffffffffffffffffffffffffffffffffffffffff1673ffffffffffffffffffffffffffffffffffffffff16815260200190815260200160002060008282540192505081905550816002600083815260200190815260200160002060006101000a81548173ffffffffffffffffffffffffffffffffffffffff021916908373ffffffffffffffffffffffffffffffffffffffff160217905550808273ffffffffffffffffffffffffffffffffffffffff168473ffffffffffffffffffffffffffffffffffffffff167fddf252ad1be2c89b69c2b068fc378daa952ba7f163c4a11628f55a4df523b3ef60405160405180910390a461136683838360016118d2565b505050565b60008073ffffffffffffffffffffffffffffffffffffffff1661138d836113ac565b73ffffffffffffffffffffffffffffffffffffffff1614159050919050565b60006002600083815260200190815260200160002060009054906101000a900473ffffffffffffffffffffffffffffffffffffffff169050919050565b6113f1610f1b565b73ffffffffffffffffffffffffffffffffffffffff1661140f6109c4565b73ffffffffffffffffffffffffffffffffffffffff1614611465576040517f08c379a000000000000000000000000000000000000000000000000000000000815260040161145c90612a7b565b60405180910390fd5b565b6000600760009054906101000a900473ffffffffffffffffffffffffffffffffffffffff16905081600760006101000a81548173ffffffffffffffffffffffffffffffffffffffff021916908373ffffffffffffffffffffffffffffffffffffffff1602179055508173ffffffffffffffffffffffffffffffffffffffff168173ffffffffffffffffffffffffffffffffffffffff167f8be0079c531659141344cd1fd0a4f28419497f9722a3daafe3b4186f6b6457e060405160405180910390a35050565b6001816000016000828254019250508190555050565b600081600001549050919050565b61156b8282604051806020016040528060008152506118d8565b5050565b6115788261136b565b6115b7576040517f08c379a00000000000000000000000000000000000000000000000000000000081526004016115ae90612a3b565b60405180910390fd5b806006600084815260200190815260200160002090805190602001906115de929190612080565b507ff8e1a15aba9398e019f0b49df1a4fde98ee17ae345cb5f6b5e2c27f5033e8ce78260405161160e9190612b3d565b60405180910390a15050565b8173ffffffffffffffffffffffffffffffffffffffff168373ffffffffffffffffffffffffffffffffffffffff161415611689576040517f08c379a0000000000000000000000000000000000000000000000000000000008152600401611680906129fb565b60405180910390fd5b80600560008573ffffffffffffffffffffffffffffffffffffffff1673ffffffffffffffffffffffffffffffffffffffff16815260200190815260200160002060008473ffffffffffffffffffffffffffffffffffffffff1673ffffffffffffffffffffffffffffffffffffffff16815260200190815260200160002060006101000a81548160ff0219169083151502179055508173ffffffffffffffffffffffffffffffffffffffff168373ffffffffffffffffffffffffffffffffffffffff167f17307eab39ab6107e8899845ad3d59bd9653f200f220920489ca2b5937696c318360405161177a91906128fe565b60405180910390a3505050565b611792848484611071565b61179e84848484611933565b6117dd576040517f08c379a00000000000000000000000000000000000000000000000000000000081526004016117d49061295b565b60405180910390fd5b50505050565b606060405180602001604052806000815250905090565b606061180582610ed0565b600061180f6117e3565b9050600081511161182f576040518060200160405280600081525061185a565b8061183984611aca565b60405160200161184a929190612873565b6040516020818303038152906040525b915050919050565b60007f01ffc9a7000000000000000000000000000000000000000000000000000000007bffffffffffffffffffffffffffffffffffffffffffffffffffffffff1916827bffffffffffffffffffffffffffffffffffffffffffffffffffffffff1916149050919050565b50505050565b50505050565b6118e28383611bee565b6118ef6000848484611933565b61192e576040517f08c379a00000000000000000000000000000000000000000000000000000000081526004016119259061295b565b60405180910390fd5b505050565b60006119548473ffffffffffffffffffffffffffffffffffffffff16611e0c565b15611abd578373ffffffffffffffffffffffffffffffffffffffff1663150b7a0261197d610f1b565b8786866040518563ffffffff1660e01b815260040161199f94939291906128b2565b602060405180830381600087803b1580156119b957600080fd5b505af19250505080156119ea57506040513d601f19601f820116820180604052508101906119e791906124bf565b60015b611a6d573d8060008114611a1a576040519150601f19603f3d011682016040523d82523d6000602084013e611a1f565b606091505b50600081511415611a65576040517f08c379a0000000000000000000000000000000000000000000000000000000008152600401611a5c9061295b565b60405180910390fd5b805181602001fd5b63150b7a0260e01b7bffffffffffffffffffffffffffffffffffffffffffffffffffffffff1916817bffffffffffffffffffffffffffffffffffffffffffffffffffffffff191614915050611ac2565b600190505b949350505050565b606060006001611ad984611e2f565b01905060008167ffffffffffffffff811115611b1e577f4e487b7100000000000000000000000000000000000000000000000000000000600052604160045260246000fd5b6040519080825280601f01601f191660200182016040528015611b505781602001600182028036833780820191505090505b509050600082602001820190505b600115611be3578080600190039150507f3031323334353637383961626364656600000000000000000000000000000000600a86061a8153600a8581611bcd577f4e487b7100000000000000000000000000000000000000000000000000000000600052601260045260246000fd5b0494506000851415611bde57611be3565b611b5e565b819350505050919050565b600073ffffffffffffffffffffffffffffffffffffffff168273ffffffffffffffffffffffffffffffffffffffff161415611c5e576040517f08c379a0000000000000000000000000000000000000000000000000000000008152600401611c5590612a5b565b60405180910390fd5b611c678161136b565b15611ca7576040517f08c379a0000000000000000000000000000000000000000000000000000000008152600401611c9e906129bb565b60405180910390fd5b611cb56000838360016118cc565b611cbe8161136b565b15611cfe576040517f08c379a0000000000000000000000000000000000000000000000000000000008152600401611cf5906129bb565b60405180910390fd5b6001600360008473ffffffffffffffffffffffffffffffffffffffff1673ffffffffffffffffffffffffffffffffffffffff16815260200190815260200160002060008282540192505081905550816002600083815260200190815260200160002060006101000a81548173ffffffffffffffffffffffffffffffffffffffff021916908373ffffffffffffffffffffffffffffffffffffffff160217905550808273ffffffffffffffffffffffffffffffffffffffff16600073ffffffffffffffffffffffffffffffffffffffff167fddf252ad1be2c89b69c2b068fc378daa952ba7f163c4a11628f55a4df523b3ef60405160405180910390a4611e086000838360016118d2565b5050565b6000808273ffffffffffffffffffffffffffffffffffffffff163b119050919050565b600080600090507a184f03e93ff9f4daa797ed6e38ed64bf6a1f0100000000000000008310611eb3577a184f03e93ff9f4daa797ed6e38ed64bf6a1f0100000000000000008381611ea9577f4e487b7100000000000000000000000000000000000000000000000000000000600052601260045260246000fd5b0492506040810190505b6d04ee2d6d415b85acef81000000008310611f16576d04ee2d6d415b85acef81000000008381611f0c577f4e487b7100000000000000000000000000000000000000000000000000000000600052601260045260246000fd5b0492506020810190505b662386f26fc100008310611f6b57662386f26fc100008381611f61577f4e487b7100000000000000000000000000000000000000000000000000000000600052601260045260246000fd5b0492506010810190505b6305f5e1008310611fba576305f5e1008381611fb0577f4e487b7100000000000000000000000000000000000000000000000000000000600052601260045260246000fd5b0492506008810190505b6127108310612005576127108381611ffb577f4e487b7100000000000000000000000000000000000000000000000000000000600052601260045260246000fd5b0492506004810190505b6064831061204e5760648381612044577f4e487b7100000000000000000000000000000000000000000000000000000000600052601260045260246000fd5b0492506002810190505b600a831061205d576001810190505b80915050919050565b604051806040016040528060008152602001606081525090565b82805461208c90612d7a565b90600052602060002090601f0160209004810192826120ae57600085556120f5565b82601f106120c757805160ff19168380011785556120f5565b828001600101855582156120f5579182015b828111156120f45782518255916020019190600101906120d9565b5b5090506121029190612106565b5090565b5b8082111561211f576000816000905550600101612107565b5090565b600061213661213184612c0e565b612be9565b90508281526020810184848401111561214e57600080fd5b612159848285612d38565b509392505050565b600061217461216f84612c3f565b612be9565b90508281526020810184848401111561218c57600080fd5b612197848285612d38565b509392505050565b6000813590506121ae81613209565b92915050565b6000813590506121c381613220565b92915050565b6000813590506121d881613237565b92915050565b6000815190506121ed81613237565b92915050565b600082601f83011261220457600080fd5b8135612214848260208601612123565b91505092915050565b600082601f83011261222e57600080fd5b813561223e848260208601612161565b91505092915050565b6000813590506122568161324e565b92915050565b60006020828403121561226e57600080fd5b600061227c8482850161219f565b91505092915050565b6000806040838503121561229857600080fd5b60006122a68582860161219f565b92505060206122b78582860161219f565b9150509250929050565b6000806000606084860312156122d657600080fd5b60006122e48682870161219f565b93505060206122f58682870161219f565b925050604061230686828701612247565b9150509250925092565b6000806000806080858703121561232657600080fd5b60006123348782880161219f565b94505060206123458782880161219f565b935050604061235687828801612247565b925050606085013567ffffffffffffffff81111561237357600080fd5b61237f878288016121f3565b91505092959194509250565b6000806040838503121561239e57600080fd5b60006123ac8582860161219f565b92505060206123bd858286016121b4565b9150509250929050565b600080604083850312156123da57600080fd5b60006123e88582860161219f565b92505060206123f985828601612247565b9150509250929050565b6000806000806080858703121561241957600080fd5b60006124278782880161219f565b945050602061243887828801612247565b935050604085013567ffffffffffffffff81111561245557600080fd5b6124618782880161221d565b925050606085013567ffffffffffffffff81111561247e57600080fd5b61248a8782880161221d565b91505092959194509250565b6000602082840312156124a857600080fd5b60006124b6848285016121c9565b91505092915050565b6000602082840312156124d157600080fd5b60006124df848285016121de565b91505092915050565b6000602082840312156124fa57600080fd5b600061250884828501612247565b91505092915050565b61251a81612cc4565b82525050565b61252981612cd6565b82525050565b600061253a82612c70565b6125448185612c86565b9350612554818560208601612d47565b61255d81612e3b565b840191505092915050565b600061257382612c7b565b61257d8185612c97565b935061258d818560208601612d47565b61259681612e3b565b840191505092915050565b60006125ac82612c7b565b6125b68185612ca8565b93506125c6818560208601612d47565b6125cf81612e3b565b840191505092915050565b60006125e582612c7b565b6125ef8185612cb9565b93506125ff818560208601612d47565b80840191505092915050565b6000612618602d83612ca8565b915061262382612e4c565b604082019050919050565b600061263b603283612ca8565b915061264682612e9b565b604082019050919050565b600061265e602683612ca8565b915061266982612eea565b604082019050919050565b6000612681602583612ca8565b915061268c82612f39565b604082019050919050565b60006126a4601c83612ca8565b91506126af82612f88565b602082019050919050565b60006126c7602483612ca8565b91506126d282612fb1565b604082019050919050565b60006126ea601983612ca8565b91506126f582613000565b602082019050919050565b600061270d602983612ca8565b915061271882613029565b604082019050919050565b6000612730602e83612ca8565b915061273b82613078565b604082019050919050565b6000612753602083612ca8565b915061275e826130c7565b602082019050919050565b6000612776602083612ca8565b9150612781826130f0565b602082019050919050565b6000612799601a83612ca8565b91506127a482613119565b602082019050919050565b60006127bc601883612ca8565b91506127c782613142565b602082019050919050565b60006127df602183612ca8565b91506127ea8261316b565b604082019050919050565b6000612802603d83612ca8565b915061280d826131ba565b604082019050919050565b60006040830160008301516128306000860182612855565b50602083015184820360208601526128488282612568565b9150508091505092915050565b61285e81612d2e565b82525050565b61286d81612d2e565b82525050565b600061287f82856125da565b915061288b82846125da565b91508190509392505050565b60006020820190506128ac6000830184612511565b92915050565b60006080820190506128c76000830187612511565b6128d46020830186612511565b6128e16040830185612864565b81810360608301526128f3818461252f565b905095945050505050565b60006020820190506129136000830184612520565b92915050565b6000602082019050818103600083015261293381846125a1565b905092915050565b600060208201905081810360008301526129548161260b565b9050919050565b600060208201905081810360008301526129748161262e565b9050919050565b6000602082019050818103600083015261299481612651565b9050919050565b600060208201905081810360008301526129b481612674565b9050919050565b600060208201905081810360008301526129d481612697565b9050919050565b600060208201905081810360008301526129f4816126ba565b9050919050565b60006020820190508181036000830152612a14816126dd565b9050919050565b60006020820190508181036000830152612a3481612700565b9050919050565b60006020820190508181036000830152612a5481612723565b9050919050565b60006020820190508181036000830152612a7481612746565b9050919050565b60006020820190508181036000830152612a9481612769565b9050919050565b60006020820190508181036000830152612ab48161278c565b9050919050565b60006020820190508181036000830152612ad4816127af565b9050919050565b60006020820190508181036000830152612af4816127d2565b9050919050565b60006020820190508181036000830152612b14816127f5565b9050919050565b60006020820190508181036000830152612b358184612818565b905092915050565b6000602082019050612b526000830184612864565b92915050565b600060a082019050612b6d6000830188612864565b612b7a6020830187612511565b612b876040830186612864565b8181036060830152612b9981856125a1565b90508181036080830152612bad81846125a1565b90509695505050505050565b6000604082019050612bce6000830185612864565b8181036020830152612be081846125a1565b90509392505050565b6000612bf3612c04565b9050612bff8282612dac565b919050565b6000604051905090565b600067ffffffffffffffff821115612c2957612c28612e0c565b5b612c3282612e3b565b9050602081019050919050565b600067ffffffffffffffff821115612c5a57612c59612e0c565b5b612c6382612e3b565b9050602081019050919050565b600081519050919050565b600081519050919050565b600082825260208201905092915050565b600082825260208201905092915050565b600082825260208201905092915050565b600081905092915050565b6000612ccf82612d0e565b9050919050565b60008115159050919050565b60007fffffffff0000000000000000000000000000000000000000000000000000000082169050919050565b600073ffffffffffffffffffffffffffffffffffffffff82169050919050565b6000819050919050565b82818337600083830152505050565b60005b83811015612d65578082015181840152602081019050612d4a565b83811115612d74576000848401525b50505050565b60006002820490506001821680612d9257607f821691505b60208210811415612da657612da5612ddd565b5b50919050565b612db582612e3b565b810181811067ffffffffffffffff82111715612dd457612dd3612e0c565b5b80604052505050565b7f4e487b7100000000000000000000000000000000000000000000000000000000600052602260045260246000fd5b7f4e487b7100000000000000000000000000000000000000000000000000000000600052604160045260246000fd5b6000601f19601f8301169050919050565b7f4552433732313a2063616c6c6572206973206e6f7420746f6b656e206f776e6560008201527f72206f7220617070726f76656400000000000000000000000000000000000000602082015250565b7f4552433732313a207472616e7366657220746f206e6f6e20455243373231526560008201527f63656976657220696d706c656d656e7465720000000000000000000000000000602082015250565b7f4f776e61626c653a206e6577206f776e657220697320746865207a65726f206160008201527f6464726573730000000000000000000000000000000000000000000000000000602082015250565b7f4552433732313a207472616e736665722066726f6d20696e636f72726563742060008201527f6f776e6572000000000000000000000000000000000000000000000000000000602082015250565b7f4552433732313a20746f6b656e20616c7265616479206d696e74656400000000600082015250565b7f4552433732313a207472616e7366657220746f20746865207a65726f2061646460008201527f7265737300000000000000000000000000000000000000000000000000000000602082015250565b7f4552433732313a20617070726f766520746f2063616c6c657200000000000000600082015250565b7f4552433732313a2061646472657373207a65726f206973206e6f74206120766160008201527f6c6964206f776e65720000000000000000000000000000000000000000000000602082015250565b7f45524337323155524953746f726167653a2055524920736574206f66206e6f6e60008201527f6578697374656e7420746f6b656e000000000000000000000000000000000000602082015250565b7f4552433732313a206d696e7420746f20746865207a65726f2061646472657373600082015250565b7f4f776e61626c653a2063616c6c6572206973206e6f7420746865206f776e6572600082015250565b7f436572746966696361746520646f6573206e6f74206578697374000000000000600082015250565b7f4552433732313a20696e76616c696420746f6b656e2049440000000000000000600082015250565b7f4552433732313a20617070726f76616c20746f2063757272656e74206f776e6560008201527f7200000000000000000000000000000000000000000000000000000000000000602082015250565b7f4552433732313a20617070726f76652063616c6c6572206973206e6f7420746f60008201527f6b656e206f776e6572206f7220617070726f76656420666f7220616c6c000000602082015250565b61321281612cc4565b811461321d57600080fd5b50565b61322981612cd6565b811461323457600080fd5b50565b61324081612ce2565b811461324b57600080fd5b50565b61325781612d2e565b811461326257600080fd5b5056fea26469706673582212209997379c12bff7f68470751f78a9951ebcf89325c8e6837a738cc3c0fd53c1eb64736f6c63430008040033",
  "linkReferences": {},
  "deployedLinkReferences": {}
}